:100000000C942A000C9447000C9447000C94470071
:100010000C9447000C9447000C9447000C94470044
:100020000C9447000C9447000C9447000C94470034
:100030000C9447000C9447000C9447000C94470024
:100040000C9447000C9447000C9447000C94470014
:100050000C94470011241FBECFE5D4E0DEBFCDBF16
:1000600011E0A0E6B0E0EEEFF9E502C005900D92D8
:10007000A43DB107D9F711E0A4EDB1E001C01D9294
:10008000AB3EB107E1F70E9445260C94FD2C0C9481
:100090000000EF92FF920F931F937B018C0120E0F1
:1000A00030E040E05FE40E94F50388238CF0C80153
:1000B000B70120E030E040E05FE40E94C1010E940F
:1000C000B3049B01AC01205030404040504806C072
:1000D000C801B7010E94B3049B01AC01B901CA0178
:1000E0001F910F91FF90EF900895A0E0B0E0EBE733
:1000F000F0E00C94952CDC012B01FA019C919230DC
:1001000008F439C1EB018881823008F433C194309E
:1001100069F4843009F02FC111969C91119789815F
:10012000981709F428C1ABECB0E025C1843009F47C
:1001300021C18230A9F4923009F01DC19A01AD01AC
:1001400088E0EA010990AE01E90109929E0181501F
:10015000C1F7E201898111969C918923818308C1AD
:10016000923009F407C112962D903C901397EB0141
:100170008A819B811496AD90BD90CD90DC901797AD
:10018000EC80FD800E811F819101281B390BB90184
:1001900037FF04C066277727621B730B6032710537
:1001A0000CF061C0121613066CF537014801062EDB
:1001B00004C096948794779467940A94D2F721E0C8
:1001C00030E040E050E004C0220F331F441F551FB1
:1001D0006A95D2F721503040404050402E213F21B7
:1001E00040235123211531054105510521F021E01E
:1001F00030E040E050E079018A01E628F72808293C
:1002000019293CC0232BD1F1260E371E350146019A
:10021000062E04C096948794779467940A94D2F734
:1002200021E030E040E050E004C0220F331F441FC3
:10023000551F6A95D2F721503040404050402A2146
:100240003B214C215D21211531054105510521F04E
:1002500021E030E040E050E059016A01A628B728CB
:10026000C828D9280BC0821593052CF01C01AA249C
:10027000BB24650103C0EE24FF24870111969C91E5
:10028000D20111968C91981709F445C0992339F041
:10029000A80197012A193B094C095D0906C0A6016E
:1002A00095012E193F09400B510B57FD08C01182D3
:1002B0003382228224833583468357831DC081E0A5
:1002C00081833382228288279927DC01821B930B4A
:1002D000A40BB50B84839583A683B7830DC0220F2F
:1002E000331F441F551F24833583468357838281E0
:1002F000938101979383828324813581468157813D
:10030000DA01C9010197A109B1098F5F9F4FAF4F72
:10031000BF4328F30BC0918333822282EA0CFB1C7B
:100320000C1D1D1DE482F5820683178383E0808304
:10033000248135814681578157FF1AC0C901AA27F8
:1003400097FDA095BA2F81709070A070B0705695EF
:10035000479537952795822B932BA42BB52B848318
:100360009583A683B7838281938101969383828349
:10037000DF0101C0D201CD01CDB7DEB7E2E10C94BF
:10038000B12CA0E2B0E0E7ECF1E00C94A12C698381
:100390007A838B839C832D833E834F835887E9E048
:1003A000EE2EF12CEC0EFD1ECE010196B7010E943F
:1003B000A4068E010F5E1F4FCE010596B8010E9464
:1003C000A4068A8991E089278A8BC701B801AE010A
:1003D000475E5F4F0E9475000E94CF05A096E6E041
:1003E0000C94BD2CA0E2B0E0E8EFF1E00C94A12C5D
:1003F00069837A838B839C832D833E834F835887C5
:10040000F9E0EF2EF12CEC0EFD1ECE010196B701A6
:100410000E94A4068E010F5E1F4FCE010596B80103
:100420000E94A406C701B801AE01475E5F4F0E945B
:1004300075000E94CF05A096E6E00C94BD2CA0E2CA
:10044000B0E0E5E2F2E00C94952C69837A838B832B
:100450009C832D833E834F835887CE010196BE0136
:10046000675F7F4F0E94A406CE010596BE016F5EB6
:100470007F4F0E94A4069985923088F08989823046
:10048000C8F0943019F4823051F404C0843029F457
:10049000923081F48BEC90E0C6C0923049F420E0B9
:1004A0009A858A89981321E02A87CE010996BBC0D4
:1004B000823049F420E09A858A89981321E02A8BBA
:1004C000CE014196B0C02D843E844F8458886D88FB
:1004D0007E888F88988CEE24FF248701AA24BB2471
:1004E000650140E050E060E070E0E0E0F0E0C10174
:1004F00081709070892BE9F0E60CF71C081D191D1E
:100500009A01AB012A0D3B1D4C1D5D1D80E090E062
:10051000A0E0B0E0E614F7040805190520F481E036
:1005200090E0A0E0B0E0BA01A901480F591F6A1F8E
:100530007B1FAA0CBB1CCC1CDD1C97FE08C081E0F5
:1005400090E0A0E0B0E0A82AB92ACA2ADB2A3196B6
:10055000E032F10549F0660C771C881C991C569412
:10056000479437942794C3CFFA85EA892B893C892D
:100570008B859C85280F391F2E5F3F4F17C0CA01FE
:1005800081709070892B61F016950795F794E79428
:1005900080E090E0A0E0B0E8E82AF92A0A2B1B2BC3
:1005A00076956795579547952F5F3F4F77FDE7CF36
:1005B0000CC0440F551F661F771F17FD4160EE0CDE
:1005C000FF1C001F111F21503040403090E05907A0
:1005D00090E0690790E4790760F32B8F3C8FDB0193
:1005E000CA018F779070A070B07080349105A1051A
:1005F000B10561F447FD0AC0E114F10401051105DC
:1006000029F0405C5F4F6F4F7F4F40781A8EFE1786
:1006100011F081E08A8F4D8F5E8F6F8F78A383E01A
:10062000898FCE0149960E94CF05A096E2E10C94F5
:10063000B12CA8E1B0E0EFE1F3E00C949D2C6983CC
:100640007A838B839C832D833E834F835887B9E0C5
:10065000EB2EF12CEC0EFD1ECE010196B7010E948F
:10066000A4068E010F5E1F4FCE010596B8010E94B1
:10067000A4062985223008F47EC03989323010F46E
:10068000B8017CC08A859A8989278A87243011F02D
:10069000223031F4231709F06EC06BEC70E06EC0AD
:1006A000343039F41D861E861F86188A1C861B86E8
:1006B00004C0323021F484E08987B7015FC02B8504
:1006C0003C858B899C89281B390B3C872B87ED84C3
:1006D000FE840F851889AD88BE88CF88D88CEA142F
:1006E000FB040C051D0540F4EE0CFF1C001F111F40
:1006F000215030403C872B8720E030E040E050E044
:1007000080E090E0A0E0B0E460E070E0EA14FB0478
:100710000C051D0540F0282B392B4A2B5B2BEA18C2
:10072000FB080C091D09B695A79597958795EE0CC2
:10073000FF1C001F111F6F5F7F4F6F31710531F775
:10074000DA01C9018F779070A070B0708034910584
:10075000A105B10561F427FD0AC0E114F10401050A
:10076000110529F0205C3F4F4F4F5F4F20782D87B8
:100770003E874F87588BBE01675F7F4FCB010E943A
:10078000CF056896EAE00C94B92CA8E1B0E0EBEC58
:10079000F3E00C94A12C69837A838B839C832D8353
:1007A0003E834F83588789E0E82EF12CEC0EFD1E26
:1007B000CE010196B7010E94A4068E010F5E1F4F65
:1007C000CE010596B8010E94A4068985823040F0CA
:1007D0008989823028F0C701B8010E941C0701C036
:1007E0008FEF6896E6E00C94BD2CA8E1B0E0EBEF4B
:1007F000F3E00C94A12C69837A838B839C832D83F3
:100800003E834F83588789E0E82EF12CEC0EFD1EC5
:10081000CE010196B7010E94A4068E010F5E1F4F04
:10082000CE010596B8010E94A4068985823040F069
:100830008989823028F0C701B8010E941C0701C0D5
:100840008FEF6896E6E00C94BD2CA8E1B0E0EBE2F7
:10085000F4E00C94A12C69837A838B839C832D8391
:100860003E834F83588789E0E82EF12CEC0EFD1E65
:10087000CE010196B7010E94A4068E010F5E1F4FA4
:10088000CE010596B8010E94A4068985823040F009
:100890008989823028F0C701B8010E941C0701C075
:1008A00081E06896E6E00C94BD2CA8E0B0E0EBE5B2
:1008B000F4E00C949E2C9B01AC0183E08983DA0167
:1008C000C9018827B7FD83959927AA27BB27B82E8A
:1008D000211531054105510519F482E089833AC09B
:1008E0008823A9F0203080E0380780E0480780E8BE
:1008F000580729F460E070E080E09FEC30C0EE24FF
:10090000FF248701E21AF30A040B150B02C07901D8
:100910008A018EE1C82ED12CDC82CB82ED82FE8250
:100920000F831887C801B7010E9480050197181628
:10093000190684F4082E04C0EE0CFF1C001F111FC2
:100940000A94D2F7ED82FE820F831887C81AD90A5B
:10095000DC82CB82BA82CE0101960E94CF05289616
:10096000E9E00C94BA2CACE0B0E0E9EBF4E00C94D4
:10097000A52C69837A838B839C83CE010196BE016B
:100980006B5F7F4F0E94A4068D81823061F18230BF
:1009900050F1843021F48E81882351F12EC02F81B3
:1009A000388537FD20C06E812F3131051CF066235C
:1009B000F9F023C08EE190E0821B930B29853A85E4
:1009C0004B855C8504C056954795379527958A9544
:1009D000D2F76623B1F050954095309521953F4F61
:1009E0004F4F5F4F0EC020E030E040E050E009C0C4
:1009F0002FEF3FEF4FEF5FE704C020E030E040E033
:100A000050E8B901CA012C96E2E00C94C12CA8E090
:100A1000B0E0EDE0F5E00C949D2C7B018C016115BC
:100A200071058105910519F482E0898360C083E036
:100A300089838EE1C82ED12CDC82CB82ED82FE82AE
:100A40000F831887C801B7010E948005FC01319708
:100A5000F7FF3BC0222733272E1B3F0B57016801AE
:100A6000022E04C0D694C794B794A7940A94D2F7E0
:100A700040E050E060E070E081E090E0A0E0B0E0B5
:100A800004C0880F991FAA1FBB1F2A95D2F7019790
:100A9000A109B1098E219F21A023B1230097A105AF
:100AA000B10521F041E050E060E070E04A295B29A7
:100AB0006C297D294D835E836F8378878EE190E07A
:100AC0008E1B9F0B9C838B8312C0309781F00E2E60
:100AD00004C0EE0CFF1C001F111F0A94D2F7ED8218
:100AE000FE820F831887CE1ADF0ADC82CB821A823D
:100AF000CE0101960E94CF052896EAE00C94B92C0D
:100B0000EF92FF920F931F937B018C0180E0E81618
:100B100080E0F80681E0080780E0180788F48FEF8E
:100B2000E816F1040105110531F028F088E090E0A5
:100B3000A0E0B0E017C080E090E0A0E0B0E012C01C
:100B400080E0E81680E0F80680E0080781E01807FA
:100B500028F088E190E0A0E0B0E004C080E190E0FF
:100B6000A0E0B0E020E230E040E050E0281B390B8C
:100B70004A0B5B0B04C016950795F794E7948A958A
:100B8000D2F7F701ED52FF4F8081281B310941094F
:100B90005109C9011F910F91FF90EF900895DF92C5
:100BA000EF92FF920F931F93FC01E480F580068182
:100BB0001781D1808081823048F480E090E0A0E10C
:100BC000B0E0E82AF92A0A2B1B2BA5C0843009F4CF
:100BD0009FC0823021F4EE24FF24870105C0E11478
:100BE000F1040105110519F4E0E0F0E096C062811E
:100BF00073819FEF623879070CF05BC022E83FEF0A
:100C0000261B370B2A3131052CF020E030E040E084
:100C100050E02AC0B801A701022E04C0769567955E
:100C2000579547950A94D2F781E090E0A0E0B0E0B4
:100C300004C0880F991FAA1FBB1F2A95D2F70197DE
:100C4000A109B1098E219F21A023B1230097A105FD
:100C5000B10521F081E090E0A0E0B0E09A01AB01A5
:100C6000282B392B4A2B5B2BDA01C9018F77907027
:100C7000A070B07080349105A105B10539F427FF4B
:100C800009C0205C3F4F4F4F5F4F04C0215C3F4F76
:100C90004F4F5F4FE0E0F0E02030A0E03A07A0E0E7
:100CA0004A07A0E45A0710F0E1E0F0E079018A0178
:100CB00027C06038710564F5FB01E158FF4FD8018A
:100CC000C7018F779070A070B07080349105A10536
:100CD000B10539F4E7FE0DC080E490E0A0E0B0E09B
:100CE00004C08FE390E0A0E0B0E0E80EF91E0A1F18
:100CF0001B1F17FF05C016950795F794E7943196CB
:100D000087E016950795F794E7948A95D1F705C083
:100D1000EE24FF248701EFEFF0E06E2F6795662742
:100D20006795902F9F77D794DD24D7948E2F869543
:100D3000492F462B582F5D29B701CA011F910F91EA
:100D4000FF90EF90DF900895FC01DB01408151811D
:100D50002281622F6F7770E0221F2227221F93814A
:100D6000892F880F822B282F30E0991F9927991FF0
:100D700011969C93119721153105A9F5411551053F
:100D80006105710511F482E037C082E89FEF139688
:100D90009C938E9312979A01AB0167E0220F331F49
:100DA000441F551F6A95D1F783E08C930DC0220F25
:100DB000331F441F551F12968D919C9113970197D5
:100DC00013969C938E931297203080E0380780E032
:100DD000480780E4580758F314962D933D934D939C
:100DE0005C93179708952F3F310579F4411551050C
:100DF0006105710519F484E08C93089564FF03C0C4
:100E000081E08C9312C01C9210C02F573040139673
:100E10003C932E93129783E08C9387E0440F551FE9
:100E2000661F771F8A95D1F7706414964D935D9372
:100E30006D937C93179708951F93DC01FB019C91A0
:100E4000923008F447C08081823008F443C0943067
:100E500051F411961C91843099F58181682F70E0CE
:100E6000611B71093FC0843021F0923031F482302F
:100E7000B9F18181882389F12DC011961C911197B8
:100E80008230F1F081811817D9F412962D913C919E
:100E90001397828193818217930794F0281739075B
:100EA000BCF014968D919D910D90BC91A02D248144
:100EB000358146815781281739074A075B0718F49F
:100EC000112341F00AC082179307A407B50740F425
:100ED000112319F061E070E005C06FEF7FEF02C0F1
:100EE00060E070E0CB011F910895DF93CF9300D0B5
:100EF000CDB7DEB789836A8389816A8140E00E9429
:100F0000A6070F900F90CF91DF910895DF93CF93B5
:100F100000D0CDB7DEB789836A8389816A810E9458
:100F2000A80A0F900F90CF91DF910895DF93CF9390
:100F300000D0CDB7DEB789836A8389816A810E9438
:100F40000A0D0F900F90CF91DF910895DF93CF930B
:100F5000CDB7DEB72D970FB6F894DEBF0FBECDBF6D
:100F600089836A834B838981282F30E03D872C87D2
:100F70008C859D858434910509F4DDC02C853D85E3
:100F80002534310594F48C859D858234910509F4CE
:100F900062C02C853D85233431050CF094C08C85CE
:100FA0009D8581349105F9F0FCC02C853D85223664
:100FB000310509F450C08C859D858336910534F444
:100FC0002C853D852136310571F0EBC08C859D85E2
:100FD0008336910509F477C02C853D85243631058B
:100FE00009F4A9C0DEC08B81282F30E03B872A8717
:100FF0008A859B850097D1F02A853B852130310574
:1010000009F0CFC0AAE3B0E0EAE3F0E08081482F26
:101010008A81282F30E081E090E0022E02C0880F04
:10102000991F0A94E2F7842B8C93BBC0AAE3B0E02B
:10103000EAE3F0E08081482F8A81282F30E081E0C8
:1010400090E0022E02C0880F991F0A94E2F7809563
:1010500084238C93A6C08B81282F30E03987288782
:10106000888599850097D1F028853985213031050B
:1010700009F097C0A7E3B0E0E7E3F0E08081482FF4
:101080008A81282F30E081E090E0022E02C0880F94
:10109000991F0A94E2F7842B8C9383C0A7E3B0E0F6
:1010A000E7E3F0E08081482F8A81282F30E081E05B
:1010B00090E0022E02C0880F991F0A94E2F78095F3
:1010C00084238C936EC08B81282F30E03F832E8346
:1010D0008E819F810097D1F02E813F812130310593
:1010E00009F05FC0A4E3B0E0E4E3F0E08081482FC2
:1010F0008A81282F30E081E090E0022E02C0880F24
:10110000991F0A94E2F7842B8C934BC0A4E3B0E0C0
:10111000E4E3F0E08081482F8A81282F30E081E0ED
:1011200090E0022E02C0880F991F0A94E2F7809582
:1011300084238C9336C08B81282F30E03D832C8311
:101140008C819D810097C9F02C813D812130310532
:1011500041F5A1E3B0E0E1E3F0E08081482F8A812E
:10116000282F30E081E090E0022E02C0880F991F06
:101170000A94E2F7842B8C9314C0A1E3B0E0E1E37E
:10118000F0E08081482F8A81282F30E081E090E0D4
:10119000022E02C0880F991F0A94E2F780958423DB
:1011A0008C932D960FB6F894DEBF0FBECDBFCF91B6
:1011B000DF910895DF93CF93CDB7DEB72D970FB6AC
:1011C000F894DEBF0FBECDBF89836A834B838981CC
:1011D000282F30E03D872C878C859D8584349105B0
:1011E00009F4DDC02C853D852534310594F48C85CA
:1011F0009D858234910509F462C02C853D85233498
:1012000031050CF094C08C859D8581349105F9F0F1
:10121000FCC02C853D852236310509F450C08C85F3
:101220009D858336910534F42C853D852136310525
:1012300071F0EBC08C859D858336910509F477C0EC
:101240002C853D852436310509F4A9C0DEC08B818B
:10125000282F30E03B872A878A859B850097D1F02D
:101260002A853B852130310509F0CFC0ABE3B0E0E2
:10127000EBE3F0E08081482F8A81282F30E081E085
:1012800090E0022E02C0880F991F0A94E2F7842B87
:101290008C93BBC0ABE3B0E0EBE3F0E08081482F80
:1012A0008A81282F30E081E090E0022E02C0880F72
:1012B000991F0A94E2F7809584238C93A6C08B81B2
:1012C000282F30E039872887888599850097D1F0C5
:1012D000288539852130310509F097C0A8E3B0E0B1
:1012E000E8E3F0E08081482F8A81282F30E081E018
:1012F00090E0022E02C0880F991F0A94E2F7842B17
:101300008C9383C0A8E3B0E0E8E3F0E08081482F4D
:101310008A81282F30E081E090E0022E02C0880F01
:10132000991F0A94E2F7809584238C936EC08B8179
:10133000282F30E03F832E838E819F810097D1F04C
:101340002E813F812130310509F05FC0A5E3B0E077
:10135000E5E3F0E08081482F8A81282F30E081E0AA
:1013600090E0022E02C0880F991F0A94E2F7842BA6
:101370008C934BC0A5E3B0E0E5E3F0E08081482F1B
:101380008A81282F30E081E090E0022E02C0880F91
:10139000991F0A94E2F7809584238C9336C08B8141
:1013A000282F30E03D832C838C819D810097C9F0EC
:1013B0002C813D812130310541F5A2E3B0E0E2E32B
:1013C000F0E08081482F8A81282F30E081E090E092
:1013D000022E02C0880F991F0A94E2F7842B8C9387
:1013E00014C0A2E3B0E0E2E3F0E08081482F8A81FC
:1013F000282F30E081E090E0022E02C0880F991F74
:101400000A94E2F7809584238C932D960FB6F89476
:10141000DEBF0FBECDBFCF91DF910895DF93CF9395
:1014200000D000D0CDB7DEB789836A838981282FA9
:1014300030E03C832B838B819C818434910509F4BB
:101440006DC02B813C81253431058CF48B819C81CE
:1014500082349105D9F12B813C81233431050CF084
:1014600049C08B819C8181349105E1F06AC02B8158
:101470003C812236310551F18B819C818336910567
:1014800034F42B813C812136310561F05AC08B81C7
:101490009C818336910571F12B813C812436310585
:1014A000E9F14FC0ABE3B0E0EBE3F0E08081482F1F
:1014B0008A81282F30E081E090E0022E02C0880F60
:1014C000991F0A94E2F784278C933BC0A8E3B0E00D
:1014D000E8E3F0E08081482F8A81282F30E081E026
:1014E00090E0022E02C0880F991F0A94E2F7842729
:1014F0008C9327C0A5E3B0E0E5E3F0E08081482FBE
:101500008A81282F30E081E090E0022E02C0880F0F
:10151000991F0A94E2F784278C9313C0A2E3B0E0EA
:10152000E2E3F0E08081482F8A81282F30E081E0DB
:1015300090E0022E02C0880F991F0A94E2F78427D8
:101540008C930F900F900F900F90CF91DF91089593
:10155000DF93CF9300D000D00F92CDB7DEB78A8350
:101560006B8319828A81282F30E03D832C834C8144
:101570005D814434510509F48EC08C819D81853490
:10158000910594F42C813D812234310509F447C042
:101590004C815D81433451050CF05FC08C819D818D
:1015A00081349105F1F095C02C813D8122363105C1
:1015B000B1F14C815D814336510534F48C819D81BC
:1015C0008136910571F085C02C813D81233631052E
:1015D00009F443C04C815D814436510509F45BC078
:1015E00078C0E9E3F0E08081482F50E08B81282F1C
:1015F00030E081E090E002C0880F991F2A95E2F761
:101600009A01282339238B81882F90E0A90102C0F9
:10161000559547958A95E2F7CA0189835CC0E6E350
:10162000F0E08081482F50E08B81282F30E081E06E
:1016300090E002C0880F991F2A95E2F79A012823AB
:1016400039238B81882F90E0A90102C055954795D9
:101650008A95E2F7CA0189833EC0E3E3F0E0808126
:10166000482F50E08B81282F30E081E090E002C0CD
:10167000880F991F2A95E2F79A01282339238B8135
:10168000882F90E0A90102C0559547958A95E2F709
:10169000CA01898320C0E0E3F0E08081482F50E058
:1016A0008B81282F30E081E090E002C0880F991FE5
:1016B0002A95E2F79A01282339238B81882F90E01D
:1016C000A90102C0559547958A95E2F7CA01898319
:1016D00002C08FEF898389810F900F900F900F9038
:1016E0000F90CF91DF910895DF93CF9300D000D07A
:1016F000CDB7DEB789836A838981282F30E03C83A8
:101700002B838B819C818434910509F43FC02B810C
:101710003C812534310584F48B819C818234910590
:1017200059F12B813C81233431055CF58B819C81FF
:1017300081349105E1F02EC02B813C8122363105A8
:10174000D9F08B819C818336910534F42B813C81C7
:101750002136310561F01EC08B819C818336910555
:1017600081F02B813C812436310581F013C0EAE3FE
:10177000F0E08A8180830EC0E7E3F0E08A81808315
:1017800009C0E4E3F0E08A81808304C0E1E3F0E093
:101790008A8180830F900F900F900F90CF91DF91EF
:1017A0000895DF93CF9300D000D0CDB7DEB7898303
:1017B0006A838981282F30E03C832B838B819C8135
:1017C0008434910509F43FC02B813C8125343105D7
:1017D00084F48B819C818234910559F12B813C8169
:1017E000233431055CF58B819C8181349105E1F0D6
:1017F0002EC02B813C8122363105D9F08B819C8112
:101800008336910534F42B813C812136310561F01A
:101810001EC08B819C818336910581F02B813C8198
:101820002436310581F013C0EBE3F0E08A81808338
:101830000EC0E8E3F0E08A81808309C0E5E3F0E0D0
:101840008A81808304C0E2E3F0E08A8180830F9084
:101850000F900F900F90CF91DF910895DF93CF936A
:1018600000D000D0CDB7DEB78A8319828A81282FB5
:1018700030E03C832B838B819C818434910509F477
:101880003FC02B813C812534310584F48B819C81C0
:101890008234910559F12B813C81233431055CF56B
:1018A0008B819C8181349105E1F02FC02B813C819B
:1018B00022363105D9F08B819C818336910534F431
:1018C0002B813C812136310561F01FC08B819C81C9
:1018D0008336910581F02B813C812436310581F0DE
:1018E00014C0E9E3F0E08081898311C0E6E3F0E011
:1018F000808189830CC0E3E3F0E08081898307C0A5
:10190000E0E3F0E08081898302C08FEF89838981E1
:101910000F900F900F900F90CF91DF910895DF936C
:10192000CF9300D00F92CDB7DEB789838981282F5E
:1019300030E03B832A838A819B818434910509F4BA
:1019400057C0EA81FB81E534F10584F42A813B81AB
:101950002234310599F18A819B8183349105DCF52C
:10196000EA81FB81E134F105E1F04EC02A813B813F
:101970002236310519F18A819B818336910534F431
:10198000EA81FB81E136F10561F03EC02A813B81AD
:101990002336310501F18A819B818436910541F11D
:1019A00033C02BE330E0ABE3B0E0EBE3F0E0808169
:1019B00080958C938C91F901808326C028E330E0D8
:1019C000A8E3B0E0E8E3F0E0808180958C938C910F
:1019D000F901808319C025E330E0A5E3B0E0E5E339
:1019E000F0E0808180958C938C91F90180830CC00C
:1019F00022E330E0A2E3B0E0E2E3F0E08081809512
:101A00008C938C91F90180830F900F900F90CF9160
:101A1000DF910895DF93CF9300D000D0CDB7DEB72C
:101A200089836A838981282F30E03C832B838B81D3
:101A30009C818434910509F46DC02B813C8125344F
:101A400031058CF48B819C8182349105D9F12B81F5
:101A50003C81233431050CF049C08B819C81813459
:101A60009105E1F06AC02B813C812236310551F1AC
:101A70008B819C818336910534F42B813C81213606
:101A8000310561F05AC08B819C818336910571F1DB
:101A90002B813C8124363105E9F14FC0ABE3B0E046
:101AA000EBE3F0E08081482F8A81282F30E081E04D
:101AB00090E0022E02C0880F991F0A94E2F7842B4F
:101AC0008C933BC0A8E3B0E0E8E3F0E08081482FCE
:101AD0008A81282F30E081E090E0022E02C0880F3A
:101AE000991F0A94E2F7842B8C9327C0A5E3B0E0FA
:101AF000E5E3F0E08081482F8A81282F30E081E003
:101B000090E0022E02C0880F991F0A94E2F7842BFE
:101B10008C9313C0A2E3B0E0E2E3F0E08081482FB1
:101B20008A81282F30E081E090E0022E02C0880FE9
:101B3000991F0A94E2F7842B8C930F900F900F90CB
:101B40000F90CF91DF910895DF93CF9300D000D015
:101B5000CDB7DEB789836A838981282F30E03C8343
:101B60002B838B819C818434910509F471C02B8176
:101B70003C81253431058CF48B819C818234910524
:101B8000E9F12B813C81233431050CF04CC08B8171
:101B90009C8181349105E9F06FC02B813C81223614
:101BA000310561F18B819C818336910534F42B8161
:101BB0003C812136310569F05FC08B819C81833681
:101BC000910589F12B813C812436310509F440C00F
:101BD00053C0ABE3B0E0EBE3F0E08081482F8A81B3
:101BE000282F30E081E090E0022E02C0880F991F7C
:101BF0000A94E2F7809584238C933EC0A8E3B0E07A
:101C0000E8E3F0E08081482F8A81282F30E081E0EE
:101C100090E0022E02C0880F991F0A94E2F7809587
:101C200084238C9329C0A5E3B0E0E5E3F0E0808154
:101C3000482F8A81282F30E081E090E0022E02C0F8
:101C4000880F991F0A94E2F7809584238C9314C01F
:101C5000A2E3B0E0E2E3F0E08081482F8A81282F00
:101C600030E081E090E0022E02C0880F991F0A94B4
:101C7000E2F7809584238C930F900F900F900F9034
:101C8000CF91DF910895DF93CF9300D000D0CDB7EF
:101C9000DEB789836A838A818F708A838981282F3E
:101CA00030E03C832B838B819C818434910509F443
:101CB00061C02B813C81253431058CF48B819C8162
:101CC00082349105B9F12B813C81233431050CF02C
:101CD00041C08B819C8181349105E1F05AC02B81F8
:101CE0003C812236310531F18B819C81833691050F
:101CF00034F42B813C812136310561F04AC08B815F
:101D00009C818336910531F12B813C81243631054C
:101D100089F13FC0ABE3B0E0EBE3F0E08081807F8E
:101D20008C93ABE3B0E0EBE3F0E090818A81892B08
:101D30008C932FC0A8E3B0E0E8E3F0E08081807FDF
:101D40008C93A8E3B0E0E8E3F0E090818A81892BEE
:101D50008C931FC0A5E3B0E0E5E3F0E08081807FD5
:101D60008C93A5E3B0E0E5E3F0E090818A81892BD4
:101D70008C930FC0A2E3B0E0E2E3F0E08081807FCB
:101D80008C93A2E3B0E0E2E3F0E090818A81892BBA
:101D90008C930F900F900F900F90CF91DF9108953B
:101DA000DF93CF9300D000D0CDB7DEB789836A83AD
:101DB0008A818295807F8A838981282F30E03C83C5
:101DC0002B838B819C818434910509F461C02B8124
:101DD0003C81253431058CF48B819C8182349105C2
:101DE000B9F12B813C81233431050CF041C08B814A
:101DF0009C8181349105E1F05AC02B813C812236CF
:101E0000310531F18B819C818336910534F42B812E
:101E10003C812136310561F04AC08B819C8183363B
:101E2000910531F12B813C812436310589F13FC088
:101E3000ABE3B0E0EBE3F0E080818F708C93ABE339
:101E4000B0E0EBE3F0E090818A81892B8C932FC086
:101E5000A8E3B0E0E8E3F0E080818F708C93A8E322
:101E6000B0E0E8E3F0E090818A81892B8C931FC079
:101E7000A5E3B0E0E5E3F0E080818F708C93A5E30B
:101E8000B0E0E5E3F0E090818A81892B8C930FC06C
:101E9000A2E3B0E0E2E3F0E080818F708C93A2E3F4
:101EA000B0E0E2E3F0E090818A81892B8C930F907F
:101EB0000F900F900F90CF91DF910895DF93CF9304
:101EC00000D0CDB7DEB789836A83898164E04A8117
:101ED0000E94A607898165E04A810E94A607898140
:101EE00066E04A810E94A607898167E04A810E94D4
:101EF000A6070F900F90CF91DF910895DF93CF93B6
:101F000000D0CDB7DEB789836A83898160E04A81DA
:101F10000E94A607898161E04A810E94A607898103
:101F200062E04A810E94A607898163E04A810E949B
:101F3000A6070F900F90CF91DF910895DF93CF9375
:101F4000CDB7DEB7AFE5B0E0EFE5F0E080818068C7
:101F50008C93CF91DF910895DF93CF93CDB7DEB708
:101F6000AFE5B0E0EFE5F0E080818F778C93CF9123
:101F7000DF910895DF93CF930F92CDB7DEB78983BA
:101F800084E490E062E070E040E050E00E94A60748
:101F9000A5E5B0E0E5E5F0E090818981892B8C939F
:101FA000ABE5B0E0EBE5F0E0808180648C930F90CE
:101FB000CF91DF910895DF93CF930F92CDB7DEB726
:101FC000898384E490E063E070E040E050E00E94A8
:101FD000A607A5E5B0E0E5E5F0E08081282F89813E
:101FE000882F90E0880F991F880F991F822B8C9360
:101FF000ABE5B0E0EBE5F0E0808180688C930F907A
:10200000CF91DF910895DF93CF930F92CDB7DEB7D5
:10201000898382E490E062E070E040E050E00E945A
:10202000A6078981833039F4A4E5B0E0E4E5F0E067
:10203000808180648C938981823039F4A4E5B0E09A
:10204000E4E5F0E080818F7B8C93ABE5B0E0EBE5DD
:10205000F0E0808180628C930F90CF91DF910895A2
:10206000DF93CF93CDB7DEB7EAE5F0E08081882F2C
:1020700090E080749070082E892F000C881F990BB7
:10208000000C881F991FCF91DF910895DF93CF93A4
:10209000CDB7DEB7EAE5F0E08081881F8827881F8A
:1020A000CF91DF910895DF93CF93CDB7DEB7EAE507
:1020B000F0E08081882F90E08072907095958795F0
:1020C00095958795959587959595879595958795F8
:1020D000CF91DF910895DF93CF93CDB7DEB7ABE516
:1020E000B0E0EBE5F0E0808180648C93CF91DF91EC
:1020F0000895DF93CF93CDB7DEB7ABE5B0E0EBE566
:10210000F0E0808180688C93CF91DF910895DF9318
:10211000CF93CDB7DEB7ABE5B0E0EBE5F0E0808183
:1021200080628C93CF91DF910895DF93CF93CDB7E9
:10213000DEB7ABE5B0E0EBE5F0E080818F7B8C9320
:10214000CF91DF910895DF93CF93CDB7DEB7ABE5A5
:10215000B0E0EBE5F0E080818F778C93CF91DF9159
:102160000895DF93CF93CDB7DEB7ABE5B0E0EBE5F5
:10217000F0E080818F7D8C93CF91DF910895DF9384
:10218000CF93CDB7DEB76C970FB6F894DEBF0FBE16
:10219000CDBF83E460E041E00E94DA0880E090E097
:1021A000A0E0B0E4898F9A8FAB8FBC8F698D7A8D58
:1021B0008B8D9C8D20E030E04AEF54E40E941F029A
:1021C000DC01CB018D8B9E8BAF8BB88F6D897E89A7
:1021D0008F89988D20E030E040E85FE30E9425047D
:1021E00088232CF481E090E09C8B8B8B3FC06D8921
:1021F0007E898F89988D20E03FEF4FE757E40E945A
:10220000C50318164CF5698D7A8D8B8D9C8D20E059
:1022100030E040E251E40E941F02DC01CB01BC012E
:10222000CD010E944900DC01CB019C8B8B8B0FC040
:1022300088EC90E09A8B898B89899A890197F1F7CC
:102240009A8B898B8B899C8901979C8B8B8B8B8933
:102250009C89009769F714C06D897E898F89988D54
:102260000E944900DC01CB019C8B8B8B8B899C8964
:10227000988B8F878F8598890197F1F7988B8F8737
:1022800083E460E040E00E94DA0880E090E0A0E0B3
:10229000B0E48B879C87AD87BE876B857C858D85F9
:1022A0009E8520E030E04AEF54E40E941F02DC01EA
:1022B000CB018F839887A987BA876F8178858985B5
:1022C0009A8520E030E040E85FE30E9425048823FF
:1022D0002CF481E090E09E838D833FC06F817885F0
:1022E00089859A8520E03FEF4FE757E40E94C503B8
:1022F00018164CF56B857C858D859E8520E030E039
:1023000040E251E40E941F02DC01CB01BC01CD017F
:102310000E944900DC01CB019E838D830FC088ECB5
:1023200090E09C838B838B819C810197F1F79C8348
:102330008B838D819E8101979E838D838D819E816C
:10234000009769F714C06F81788589859A850E9406
:102350004900DC01CB019E838D838D819E819A8310
:10236000898389819A810197F1F79A8389836C9691
:102370000FB6F894DEBF0FBECDBFCF91DF910895A9
:10238000DF93CF93CDB7DEB783E461E041E00E94F5
:10239000DA08CF91DF910895DF93CF93CDB7DEB701
:1023A00083E461E040E00E94DA08CF91DF91089574
:1023B000DF93CF930F92CDB7DEB7898383E462E0DA
:1023C00049810E94DA080F90CF91DF910895DF9341
:1023D000CF930F92CDB7DEB789830E94CC1189814C
:1023E000982F92959F7083E4692F0E94D00E0E94CF
:1023F000BF1083E469810E94D00E0E94BF100F902D
:10240000CF91DF910895DF93CF93CDB7DEB72E97AD
:102410000FB6F894DEBF0FBECDBF81E00E94E7117A
:1024200080E090E0A0E2B1E48B879C87AD87BE8717
:102430006B857C858D859E8520E030E04AEF54E4F5
:102440000E941F02DC01CB018F839887A987BA877E
:102450006F81788589859A8520E030E040E85FE3E8
:102460000E94250488232CF481E090E09E838D83D4
:102470003FC06F81788589859A8520E03FEF4FE7DF
:1024800057E40E94C50318164CF56B857C858D8535
:102490009E8520E030E040E251E40E941F02DC0112
:1024A000CB01BC01CD010E944900DC01CB019E8320
:1024B0008D830FC088EC90E09C838B838B819C8103
:1024C0000197F1F79C838B838D819E8101979E8379
:1024D0008D838D819E81009769F714C06F81788507
:1024E00089859A850E944900DC01CB019E838D83FA
:1024F0008D819E819A83898389819A810197F1F7E1
:102500009A8389832E960FB6F894DEBF0FBECDBF97
:10251000CF91DF910895DF93CF93CDB7DEB72E979C
:102520000FB6F894DEBF0FBECDBF82E00E94E71168
:1025300080E090E0A0E2B1E48B879C87AD87BE8706
:102540006B857C858D859E8520E030E04AEF54E4E4
:102550000E941F02DC01CB018F839887A987BA876D
:102560006F81788589859A8520E030E040E85FE3D7
:102570000E94250488232CF481E090E09E838D83C3
:102580003FC06F81788589859A8520E03FEF4FE7CE
:1025900057E40E94C50318164CF56B857C858D8524
:1025A0009E8520E030E040E251E40E941F02DC0101
:1025B000CB01BC01CD010E944900DC01CB019E830F
:1025C0008D830FC088EC90E09C838B838B819C81F2
:1025D0000197F1F79C838B838D819E8101979E8368
:1025E0008D838D819E81009769F714C06F817885F6
:1025F00089859A850E944900DC01CB019E838D83E9
:102600008D819E819A83898389819A810197F1F7CF
:102610009A8389832E960FB6F894DEBF0FBECDBF86
:10262000CF91DF910895DF93CF93CDB7DEB72E978B
:102630000FB6F894DEBF0FBECDBF86E00E94E71153
:1026400080E090E0A0E8BFE38B879C87AD87BE87E2
:102650006B857C858D859E8520E030E04AEF54E4D3
:102660000E941F02DC01CB018F839887A987BA875C
:102670006F81788589859A8520E030E040E85FE3C6
:102680000E94250488232CF481E090E09E838D83B2
:102690003FC06F81788589859A8520E03FEF4FE7BD
:1026A00057E40E94C50318164CF56B857C858D8513
:1026B0009E8520E030E040E251E40E941F02DC01F0
:1026C000CB01BC01CD010E944900DC01CB019E83FE
:1026D0008D830FC088EC90E09C838B838B819C81E1
:1026E0000197F1F79C838B838D819E8101979E8357
:1026F0008D838D819E81009769F714C06F817885E5
:1027000089859A850E944900DC01CB019E838D83D7
:102710008D819E819A83898389819A810197F1F7BE
:102720009A8389832E960FB6F894DEBF0FBECDBF75
:10273000CF91DF910895DF93CF93CDB7DEB72E977A
:102740000FB6F894DEBF0FBECDBF8EE00E94E7113A
:1027500080E090E0A0E8BFE38B879C87AD87BE87D1
:102760006B857C858D859E8520E030E04AEF54E4C2
:102770000E941F02DC01CB018F839887A987BA874B
:102780006F81788589859A8520E030E040E85FE3B5
:102790000E94250488232CF481E090E09E838D83A1
:1027A0003FC06F81788589859A8520E03FEF4FE7AC
:1027B00057E40E94C50318164CF56B857C858D8502
:1027C0009E8520E030E040E251E40E941F02DC01DF
:1027D000CB01BC01CD010E944900DC01CB019E83ED
:1027E0008D830FC088EC90E09C838B838B819C81D0
:1027F0000197F1F79C838B838D819E8101979E8346
:102800008D838D819E81009769F714C06F817885D3
:1028100089859A850E944900DC01CB019E838D83C6
:102820008D819E819A83898389819A810197F1F7AD
:102830009A8389832E960FB6F894DEBF0FBECDBF64
:10284000CF91DF910895DF93CF93CDB7DEB72E9769
:102850000FB6F894DEBF0FBECDBF8CE00E94E7112B
:1028600080E090E0A0E8BFE38B879C87AD87BE87C0
:102870006B857C858D859E8520E030E04AEF54E4B1
:102880000E941F02DC01CB018F839887A987BA873A
:102890006F81788589859A8520E030E040E85FE3A4
:1028A0000E94250488232CF481E090E09E838D8390
:1028B0003FC06F81788589859A8520E03FEF4FE79B
:1028C00057E40E94C50318164CF56B857C858D85F1
:1028D0009E8520E030E040E251E40E941F02DC01CE
:1028E000CB01BC01CD010E944900DC01CB019E83DC
:1028F0008D830FC088EC90E09C838B838B819C81BF
:102900000197F1F79C838B838D819E8101979E8334
:102910008D838D819E81009769F714C06F817885C2
:1029200089859A850E944900DC01CB019E838D83B5
:102930008D819E819A83898389819A810197F1F79C
:102940009A8389832E960FB6F894DEBF0FBECDBF53
:10295000CF91DF910895DF93CF93CDB7DEB72E9758
:102960000FB6F894DEBF0FBECDBF8FE00E94E71117
:1029700080E090E0A0E8BFE38B879C87AD87BE87AF
:102980006B857C858D859E8520E030E04AEF54E4A0
:102990000E941F02DC01CB018F839887A987BA8729
:1029A0006F81788589859A8520E030E040E85FE393
:1029B0000E94250488232CF481E090E09E838D837F
:1029C0003FC06F81788589859A8520E03FEF4FE78A
:1029D00057E40E94C50318164CF56B857C858D85E0
:1029E0009E8520E030E040E251E40E941F02DC01BD
:1029F000CB01BC01CD010E944900DC01CB019E83CB
:102A00008D830FC088EC90E09C838B838B819C81AD
:102A10000197F1F79C838B838D819E8101979E8323
:102A20008D838D819E81009769F714C06F817885B1
:102A300089859A850E944900DC01CB019E838D83A4
:102A40008D819E819A83898389819A810197F1F78B
:102A50009A8389832E960FB6F894DEBF0FBECDBF42
:102A6000CF91DF910895DF93CF93CDB7DEB784E1A7
:102A70000E94E711CF91DF910895DF93CF93CDB7F7
:102A8000DEB780E10E94E711CF91DF910895DF93D7
:102A9000CF93CDB7DEB72E970FB6F894DEBF0FBE3B
:102AA000CDBF84E00E94E71180E090E0A0E8BFE3A2
:102AB0008B879C87AD87BE876B857C858D859E8542
:102AC00020E030E04AEF54E40E941F02DC01CB0119
:102AD0008F839887A987BA876F81788589859A853A
:102AE00020E030E040E85FE30E94250488232CF4D6
:102AF00081E090E09E838D833FC06F8178858985DA
:102B00009A8520E03FEF4FE757E40E94C50318166F
:102B10004CF56B857C858D859E8520E030E040E21C
:102B200051E40E941F02DC01CB01BC01CD010E94D7
:102B30004900DC01CB019E838D830FC088EC90E0BF
:102B40009C838B838B819C810197F1F79C838B8382
:102B50008D819E8101979E838D838D819E810097BB
:102B600069F714C06F81788589859A850E9449002C
:102B7000DC01CB019E838D838D819E819A83898325
:102B800089819A810197F1F79A8389832E960FB6EE
:102B9000F894DEBF0FBECDBFCF91DF910895DF93D4
:102BA000CF93CDB7DEB78CE10E94E711CF91DF91D3
:102BB0000895DF93CF93CDB7DEB788E10E94E71188
:102BC000CF91DF910895DF93CF9300D00F92CDB7CF
:102BD000DEB78A836B8380E889838A81833048F4F7
:102BE0008A81882331F08B81813118F48B8188238D
:102BF00021F489810E94E71113C08A81813039F460
:102C00008B818158898389810E94E71109C08A815B
:102C1000823031F48B818154898389810E94E7114C
:102C20000F900F900F90CF91DF910895DF93CF9386
:102C30000F92CDB7DEB789830E94C0118981982F8A
:102C400092959F7083E4692F0E94D00E0E94BF105E
:102C500083E469810E94D00E0E94BF100F90CF9133
:102C6000DF910895DF93CF9300D0CDB7DEB79A837D
:102C700089830AC0E981FA8180810E9416168981C0
:102C80009A8101969A838983E981FA8180818823D8
:102C900089F70F900F90CF91DF910895DF93CF9335
:102CA000CDB7DEB7AA970FB6F894DEBF0FBECDBF83
:102CB00080E090E0A8E4B3E48FA398A7A9A7BAA7FF
:102CC0006FA178A589A59AA520E030E04AEF54E4E9
:102CD0000E941F02DC01CB018BA39CA3ADA3BEA36A
:102CE0006BA17CA18DA19EA120E030E040E85FE3D4
:102CF0000E94250488232CF481E090E09AA389A304
:102D00003FC06BA17CA18DA19EA120E03FEF4FE7CA
:102D100057E40E94C50318164CF56FA178A589A544
:102D20009AA520E030E040E251E40E941F02DC015D
:102D3000CB01BC01CD010E944900DC01CB019AA36B
:102D400089A30FC088EC90E098A38F8F8F8D98A1F6
:102D50000197F1F798A38F8F89A19AA101979AA360
:102D600089A389A19AA1009769F714C06BA17CA1DE
:102D70008DA19EA10E944900DC01CB019AA389A3E9
:102D800089A19AA19E8F8D8F8D8D9E8D0197F1F7D0
:102D90009E8F8D8F83E461E00E945E0F83E461E08B
:102DA00041E00E94A60783E460E041E00E94A6079C
:102DB00082E00E94E71180E090E0A0E8BFE3898F05
:102DC0009A8FAB8FBC8F698D7A8D8B8D9C8D20E017
:102DD00030E04AEF54E40E941F02DC01CB018D8BEE
:102DE0009E8BAF8BB88F6D897E898F89988D20E0FF
:102DF00030E040E85FE30E94250488232CF481E062
:102E000090E09C8B8B8B3FC06D897E898F89988DDC
:102E100020E03FEF4FE757E40E94C50318164CF53A
:102E2000698D7A8D8B8D9C8D20E030E040E251E4FD
:102E30000E941F02DC01CB01BC01CD010E944900B0
:102E4000DC01CB019C8B8B8B0FC088EC90E09A8BC4
:102E5000898B89899A890197F1F79A8B898B8B895C
:102E60009C8901979C8B8B8B8B899C89009769F738
:102E700014C06D897E898F89988D0E944900DC017C
:102E8000CB019C8B8B8B8B899C89988B8F878F85B3
:102E900098890197F1F7988B8F8788E20E94E71154
:102EA00080E090E0A0E8BFE38B879C87AD87BE877A
:102EB0006B857C858D859E8520E030E04AEF54E46B
:102EC0000E941F02DC01CB018F839887A987BA87F4
:102ED0006F81788589859A8520E030E040E85FE35E
:102EE0000E94250488232CF481E090E09E838D834A
:102EF0003FC06F81788589859A8520E03FEF4FE755
:102F000057E40E94C50318164CF56B857C858D85AA
:102F10009E8520E030E040E251E40E941F02DC0187
:102F2000CB01BC01CD010E944900DC01CB019E8395
:102F30008D830FC088EC90E09C838B838B819C8178
:102F40000197F1F79C838B838D819E8101979E83EE
:102F50008D838D819E81009769F714C06F8178857C
:102F600089859A850E944900DC01CB019E838D836F
:102F70008D819E819A83898389819A810197F1F756
:102F80009A8389830E948B120E949B130E940312D2
:102F90000E941313AA960FB6F894DEBF0FBECDBFE2
:102FA000CF91DF910895DF93CF93CDB7DEB76297CE
:102FB0000FB6F894DEBF0FBECDBF9A8B898B89897F
:102FC0009A899E012F5F3F4FB9014AE050E00E946D
:102FD000CC2CCE0101960E94321662960FB6F89460
:102FE000DEBF0FBECDBFCF91DF910895DF93CF93AA
:102FF00000D0CDB7DEB789836A8389816A8141E0D9
:103000000E94A6070F900F90CF91DF910895DF9354
:10301000CF9300D0CDB7DEB789836A8389816A8177
:1030200041E00E94DA080F900F90CF91DF91089550
:10303000DF93CF9300D0CDB7DEB789836A838981D0
:103040006A8140E00E94DA080F900F90CF91DF91E3
:103050000895DF93CF9300D0CDB7DEB789836A831D
:1030600089816A810E940E0A0F900F90CF91DF91A3
:103070000895DF93CF9300D0CDB7DEB789836A83FD
:1030800089816A810E94A80A0F900F90CF91DF91E9
:103090000895DF93CF9300D000D0CDB7DEB78983FA
:1030A0006A838A81282F30E03C832B838B819C812B
:1030B000009751F02B813C812130310549F4898101
:1030C00061E00E945E0F04C0898161E00E947E0F72
:1030D0000F900F900F900F90CF91DF910895DF9395
:1030E000CF9300D000D0CDB7DEB789836A838A81C1
:1030F000282F30E03C832B838B819C810097D1F07B
:103100002B813C812130310549F5898164E041E022
:103110000E94DA08898165E040E00E94DA0889812E
:1031200066E041E00E94DA08898167E040E00E94A1
:10313000DA0814C0898160E041E00E94DA088981E0
:1031400061E040E00E94DA08898162E041E00E948B
:10315000DA08898163E040E00E94DA080F900F905E
:103160000F900F90CF91DF910895DF93CF9300D010
:1031700000D0CDB7DEB789836A838A81282F30E0FB
:103180003C832B838B819C810097D1F02B813C81E8
:103190002130310549F5898164E040E00E94DA0878
:1031A000898165E041E00E94DA08898166E040E0BB
:1031B0000E94DA08898167E041E00E94DA0814C0C1
:1031C000898160E040E00E94DA08898161E041E0A5
:1031D0000E94DA08898162E040E00E94DA08898171
:1031E00063E041E00E94DA080F900F900F900F907B
:1031F000CF91DF910895DF93CF9300D000D0CDB76A
:10320000DEB789836A838A81282F30E03C832B8351
:103210008B819C810097D1F02B813C81213031053D
:1032200049F5898164E041E00E94DA08898165E01E
:1032300040E00E94DA08898166E040E00E94DA08F6
:10324000898167E041E00E94DA0814C0898160E06A
:1032500041E00E94DA08898161E040E00E94DA08DA
:10326000898162E040E00E94DA08898163E041E000
:103270000E94DA080F900F900F900F90CF91DF917E
:103280000895DF93CF9300D000D0CDB7DEB7898308
:103290006A838A81282F30E03C832B838B819C8139
:1032A0000097D1F02B813C812130310549F589818E
:1032B00064E040E00E94DA08898165E041E00E9414
:1032C000DA08898166E041E00E94DA08898167E0D6
:1032D00040E00E94DA0814C0898160E040E00E946A
:1032E000DA08898161E041E00E94DA08898162E0C0
:1032F00041E00E94DA08898163E040E00E94DA0838
:103300000F900F900F900F90CF91DF910895DF9362
:10331000CF9300D000D0CDB7DEB789836A838A818E
:10332000282F30E03C832B838B819C810097D1F048
:103330002B813C812130310549F5898164E040E0F1
:103340000E94DA08898165E040E00E94DA088981FC
:1033500066E041E00E94DA08898167E040E00E946F
:10336000DA0814C0898160E040E00E94DA088981AF
:1033700061E040E00E94DA08898162E041E00E9459
:10338000DA08898163E040E00E94DA080F900F902C
:103390000F900F90CF91DF910895DF93CF9300D0DE
:1033A00000D0CDB7DEB789836A838A81282F30E0C9
:1033B0003C832B838B819C810097D1F02B813C81B6
:1033C0002130310549F5898164E041E00E94DA0845
:1033D000898165E040E00E94DA08898166E040E08A
:1033E0000E94DA08898167E040E00E94DA0814C090
:1033F000898160E041E00E94DA08898161E040E073
:103400000E94DA08898162E040E00E94DA0889813E
:1034100063E040E00E94DA080F900F900F900F9049
:10342000CF91DF910895DF93CF9300D000D0CDB737
:10343000DEB789836A838A81282F30E03C832B831F
:103440008B819C810097D1F02B813C81213031050B
:1034500049F5898164E040E00E94DA08898165E0ED
:1034600041E00E94DA08898166E040E00E94DA08C3
:10347000898167E040E00E94DA0814C0898160E039
:1034800040E00E94DA08898161E041E00E94DA08A8
:10349000898162E040E00E94DA08898163E040E0CF
:1034A0000E94DA080F900F900F900F90CF91DF914C
:1034B0000895DF93CF9300D000D0CDB7DEB78983D6
:1034C0006A838A81282F30E03C832B838B819C8107
:1034D0000097D1F02B813C812130310549F589815C
:1034E00064E040E00E94DA08898165E040E00E94E3
:1034F000DA08898166E040E00E94DA08898167E0A5
:1035000041E00E94DA0814C0898160E040E00E9436
:10351000DA08898161E040E00E94DA08898162E08E
:1035200040E00E94DA08898163E041E00E94DA0805
:103530000F900F900F900F90CF91DF910895DF9330
:10354000CF9300D000D0CDB7DEB789836A838A815C
:10355000282F30E03C832B838B819C810097D1F016
:103560002B813C812130310549F5898164E040E0BF
:103570000E94DA08898165E040E00E94DA088981CA
:1035800066E040E00E94DA08898167E040E00E943E
:10359000DA0814C0898160E040E00E94DA0889817D
:1035A00061E040E00E94DA08898162E040E00E9428
:1035B000DA08898163E040E00E94DA080F900F90FA
:1035C0000F900F90CF91DF910895DF93CF93CDB7F8
:1035D000DEB784E465E041E00E94A607CF91DF9169
:1035E0000895DF93CF93CDB7DEB784E464E041E084
:1035F0000E94A607CF91DF9108950F931F93DF9349
:10360000CF9300D000D0CDB7DEB769837A838B83A8
:103610009C83AFE4B0E0EFE4F0E080818E7F8C9398
:10362000AFE4B0E0EFE4F0E0808182608C93AEE440
:10363000B0E0EEE4F0E0808188608C93AEE4B0E02E
:10364000EEE4F0E0808180618C930AE410E069810F
:103650007A818B819C8120E030E04AE754E40E942B
:103660001F02DC01CB01BC01CD0120E030E044E3CE
:1036700053E40E941903DC01CB01BC01CD0120E021
:1036800030E04AE754E40E94F201DC01CB01BC01C6
:10369000CD010E944900DC01CB01F80191838083B8
:1036A000E6E4F0E080E29EE491838083AEE4B0E063
:1036B000EEE4F0E080818E7F8C93AEE4B0E0EEE447
:1036C000F0E0808182608C93AEE4B0E0EEE4F0E064
:1036D00080818B7F8C93AFE4B0E0EFE4F0E08081F9
:1036E0008F7B8C93AFE4B0E0EFE4F0E08081806802
:1036F0008C930F900F900F900F90CF91DF911F91AF
:103700000F9108950F931F93DF93CF9300D000D0B4
:10371000CDB7DEB769837A838B839C83AFE4B0E057
:10372000EFE4F0E080818E7F8C93AFE4B0E0EFE4D3
:10373000F0E0808182608C93AEE4B0E0EEE4F0E0F3
:10374000808188608C93AEE4B0E0EEE4F0E08081AC
:1037500080618C9308E410E069817A818B819C817F
:1037600020E030E04AE754E40E941F02DC01CB0174
:10377000BC01CD0120E030E044E353E40E94190392
:10378000DC01CB01BC01CD0120E030E04AE754E48C
:103790000E94F201DC01CB01BC01CD010E94490075
:1037A000DC01CB01F80191838083E6E4F0E080E264
:1037B0009EE491838083AEE4B0E0EEE4F0E08081AB
:1037C0008E7F8C93AEE4B0E0EEE4F0E08081826026
:1037D0008C93AEE4B0E0EEE4F0E080818B7F8C93DC
:1037E000AFE4B0E0EFE4F0E080818F7E8C93AFE453
:1037F000B0E0EFE4F0E0808180628C930F900F9056
:103800000F900F90CF91DF911F910F910895DF934B
:10381000CF93CDB7DEB782E463E041E00E94A60714
:10382000CF91DF910895DF93CF9300D00F92CDB762
:10383000DEB789838981282F30E03B832A838A8100
:103840009B818A35910569F02A813B81243B3105B2
:1038500061F08A819B81009759F486E00E94131DD4
:1038600007C08BE00E94131D03C080E10E94131D5E
:103870000F900F900F90CF91DF910895DF93CF932A
:10388000CDB7DEB7A3E5B0E0E3E5F0E0808181608D
:103890008C93A3E5B0E0E3E5F0E080818D7F8C932D
:1038A000A3E5B0E0E3E5F0E0808184608C93CF9104
:1038B000DF910895DF93CF93CDB7DEB7A3E5B0E0F6
:1038C000E3E5F0E080818E7F8C93A3E5B0E0E3E553
:1038D000F0E080818D7F8C93A3E5B0E0E3E5F0E03C
:1038E00080818B7F8C93CF91DF910895DF93CF936D
:1038F000CDB7DEB70E943E1CCF91DF910895DF93D4
:10390000CF93CDB7DEB7A3E5B0E0E3E5F0E080818B
:1039100081608C93A3E5B0E0E3E5F0E08081826014
:103920008C93A3E5B0E0E3E5F0E0808184608C93C4
:10393000CF91DF910895DF93CF93CDB7DEB7A3E5A5
:10394000B0E0E3E5F0E080818F7B8C93A3E5B0E00D
:10395000E3E5F0E08081877F8C930E949E0FA9E5CC
:10396000B0E0E9E5F0E0808181608C930E94761CF4
:10397000CF91DF910895DF93CF930F92CDB7DEB74C
:103980008983A3E5B0E0E3E5F0E080818F7B8C9351
:10399000A3E5B0E0E3E5F0E0808188608C93ECE59E
:1039A000F0E0898180830E949E0FA9E5B0E0E9E5FF
:1039B000F0E0808182608C930E94761C0F90CF9102
:1039C000DF910895DF93CF930F92CDB7DEB7898350
:1039D00082E463E041E00E94A607A3E5B0E0E3E5EE
:1039E000F0E080818F7B8C93A3E5B0E0E3E5F0E02D
:1039F000808188608C93ECE5F0E089818083A3E589
:103A0000B0E0E3E5F0E0808180618C93A3E5B0E075
:103A1000E3E5F0E080818F7D8C930E94761C0F900F
:103A2000CF91DF910895DF93CF930F92CDB7DEB79B
:103A30008983A3E5B0E0E3E5F0E0808180648C93C6
:103A4000A3E5B0E0E3E5F0E0808188608C93ECE5ED
:103A5000F0E0898180830E943E1CA3E5B0E0E3E5AD
:103A6000F0E080818F7E8C93A3E5B0E0E3E5F0E0A9
:103A7000808180628C930F90CF91DF910895DF93C6
:103A8000CF930F92CDB7DEB789838981882F90E0DD
:103A9000AA2797FDA095BA2FBC01CD010E9455041D
:103AA000DC01CB01BC01CD0123E333E343E250E46D
:103AB0000E941F02DC01CB01BC01CD010E94490024
:103AC000DC01CB010E94131D0F90CF91DF9108956F
:103AD000DF93CF930F92CDB7DEB7898382E463E0A3
:103AE00041E00E94A607A3E5B0E0E3E5F0E08081B5
:103AF00080648C93A3E5B0E0E3E5F0E08081877F0C
:103B00008C93ECE5F0E0898180830E943E1CA3E564
:103B1000B0E0E3E5F0E080818F7E8C93A3E5B0E038
:103B2000E3E5F0E0808180628C930F90CF91DF918C
:103B30000895DF93CF93CDB7DEB7E2E5F0E01082D2
:103B4000CF91DF910895DF93CF93CDB7DEB7AEE489
:103B5000B0E0EEE4F0E0808181608C93AEE4B0E010
:103B6000EEE4F0E080818D7F8C93AEE4B0E0EEE493
:103B7000F0E0808184608C93CF91DF910895DF9392
:103B8000CF93CDB7DEB7AEE4B0E0EEE4F0E08081F5
:103B90008E7F8C93AEE4B0E0EEE4F0E080818D7F28
:103BA0008C93AEE4B0E0EEE4F0E080818B7F8C9308
:103BB000CF91DF910895DF93CF93CDB7DEB70E9409
:103BC000A31DCF91DF910895DF93CF93CDB7DEB7DB
:103BD000AEE4B0E0EEE4F0E0808181608C93AEE48E
:103BE000B0E0EEE4F0E0808182608C93AEE4B0E07F
:103BF000EEE4F0E0808184608C93CF91DF910895B2
:103C0000DF93CF93CDB7DEB7AFE4B0E0EFE4F0E001
:103C100080818E7F8C93AFE4B0E0EFE4F0E08081B0
:103C20008D7F8C93AEE4B0E0EEE4F0E08081877F9E
:103C30008C93AEE4B0E0EEE4F0E080818F7E8C9374
:103C40000E949E0FA9E5B0E0E9E5F0E08081846084
:103C50008C930E94DB1DCF91DF910895DF93CF936A
:103C600000D0CDB7DEB79A838983AFE4B0E0EFE44C
:103C7000F0E080818E7F8C93AFE4B0E0EFE4F0E081
:103C800080818D7F8C93AEE4B0E0EEE4F0E0808143
:103C900088608C93AEE4B0E0EEE4F0E080818F7E4B
:103CA0008C93EAE4F0E089819A81918380830E9479
:103CB0009E0FA9E5B0E0E9E5F0E0808180618C939A
:103CC0000E94DB1D0F900F90CF91DF910895DF933D
:103CD000CF9300D0CDB7DEB79A838983AFE4B0E04D
:103CE000EFE4F0E080818E7F8C93AFE4B0E0EFE40E
:103CF000F0E080818D7F8C93AEE4B0E0EEE4F0E004
:103D0000808188608C93AEE4B0E0EEE4F0E08081E6
:103D100080618C93E6E4F0E089819A8191838083CD
:103D20000E949E0FA9E5B0E0E9E5F0E080818062A5
:103D30008C930E94DB1D0F900F90CF91DF9108951F
:103D4000DF93CF9300D0CDB7DEB79A838983AFE4FA
:103D5000B0E0EFE4F0E080818E7F8C93AFE4B0E0E0
:103D6000EFE4F0E080818D7F8C93AEE4B0E0EEE490
:103D7000F0E0808188608C93AEE4B0E0EEE4F0E0A7
:103D800080818F7E8C93E8E4F0E089819A81918331
:103D900080830E949E0FA9E5B0E0E9E5F0E0808114
:103DA00088608C930E94DB1D0F900F90CF91DF9164
:103DB0000895DF93CF9300D0CDB7DEB79A83898380
:103DC00084E465E041E00E94A607AFE4B0E0EFE4E0
:103DD000F0E080818E7F8C93AFE4B0E0EFE4F0E020
:103DE00080818D7F8C93AEE4B0E0EEE4F0E08081E2
:103DF00088608C93AEE4B0E0EEE4F0E080818F7EEA
:103E00008C93EAE4F0E089819A81918380830E9417
:103E1000A31DAFE4B0E0EFE4F0E0808180648C9318
:103E2000AFE4B0E0EFE4F0E080818F778C930F9007
:103E30000F90CF91DF910895DF93CF9300D0CDB74E
:103E4000DEB79A83898384E464E041E00E94A60798
:103E5000AFE4B0E0EFE4F0E080818E7F8C93AFE4DC
:103E6000B0E0EFE4F0E080818D7F8C93AEE4B0E0D1
:103E7000EEE4F0E0808188608C93AEE4B0E0EEE4A4
:103E8000F0E080818F7E8C93E8E4F0E089819A8174
:103E9000918380830E94A31DAFE4B0E0EFE4F0E0E3
:103EA000808180618C93AFE4B0E0EFE4F0E080814A
:103EB0008F7D8C930F900F90CF91DF910895DF93BA
:103EC000CF9300D0CDB7DEB79A83898384E465E0D1
:103ED00041E00E94A607AFE4B0E0EFE4F0E08081AB
:103EE00081608C93AFE4B0E0EFE4F0E08081826029
:103EF0008C93AEE4B0E0EEE4F0E0808188608C93D7
:103F0000AEE4B0E0EEE4F0E0808180618C93EAE41E
:103F1000F0E089819A81918380830E94A31DAFE4A0
:103F2000B0E0EFE4F0E080818F7B8C93AFE4B0E011
:103F3000EFE4F0E0808180688C930F900F90CF9138
:103F4000DF910895DF93CF9300D0CDB7DEB79A838A
:103F5000898384E464E041E00E94A607AFE4B0E016
:103F6000EFE4F0E0808181608C93AFE4B0E0EFE4B7
:103F7000F0E0808182608C93AEE4B0E0EEE4F0E0AB
:103F8000808188608C93AEE4B0E0EEE4F0E0808164
:103F900080618C93E8E4F0E089819A819183808349
:103FA0000E94A31DAFE4B0E0EFE4F0E080818F7EDB
:103FB0008C93AFE4B0E0EFE4F0E0808180628C931A
:103FC0000F900F90CF91DF910895DF93CF93CDB7EE
:103FD000DEB784E465E041E00E94A607AFE4B0E00C
:103FE000EFE4F0E0808181608C93AFE4B0E0EFE437
:103FF000F0E080818D7F8C93AEE4B0E0EEE4F0E001
:10400000808188608C93AEE4B0E0EEE4F0E08081E3
:104010008F7E8C930E94A31DAFE4B0E0EFE4F0E04C
:1040200080818F7B8C93AFE4B0E0EFE4F0E080819F
:1040300080688C93CF91DF910895DF93CF93CDB7B4
:10404000DEB784E464E041E00E94A607AFE4B0E09C
:10405000EFE4F0E0808181608C93AFE4B0E0EFE4C6
:10406000F0E080818D7F8C93AEE4B0E0EEE4F0E090
:10407000808188608C93AEE4B0E0EEE4F0E0808173
:104080008F7E8C930E94A31DAFE4B0E0EFE4F0E0DC
:1040900080818F7E8C93AFE4B0E0EFE4F0E080812C
:1040A00080628C93CF91DF910895DF93CF930F922D
:1040B000CDB7DEB789838981882F90E0AA2797FD45
:1040C000A095BA2FBC01CD010E945504DC01CB01A3
:1040D000BC01CD0126E636ED43E254E40E941F0206
:1040E000DC01CB01BC01CD010E944900DC01CB0108
:1040F0000E945F1F0F90CF91DF910895DF93CF93C0
:104100000F92CDB7DEB789838981882F90E0AA27E7
:1041100097FDA095BA2FBC01CD010E945504DC018A
:10412000CB01BC01CD0126E636ED43E254E40E940A
:104130001F02DC01CB01BC01CD010E944900DC0162
:10414000CB010E94A21F0F90CF91DF910895DF93C2
:10415000CF93CDB7DEB7AEE4B0E0EEE4F0E080811F
:10416000806C8C93CF91DF910895DF93CF93CDB77F
:10417000DEB7AEE4B0E0EEE4F0E0808180688C93DE
:10418000AEE4B0E0EEE4F0E080818F7B8C93CF91E1
:10419000DF910895DF93CF93CDB7DEB7A8E5B0E008
:1041A000E8E5F0E0808180628C93CF91DF91089503
:1041B000DF93CF93CDB7DEB7E8E5F0E08081882FBD
:1041C00090E08072907095958795959587959595D7
:1041D00087959595879595958795CF91DF910895CA
:1041E000DF93CF93CDB7DEB7ECE4F0E0118210821D
:1041F000CF91DF910895DF93CF93CDB7DEB784E4FD
:1042000065E041E00E94A607AFE4B0E0EFE4F0E033
:10421000808181608C93AFE4B0E0EFE4F0E08081D6
:104220008D7F8C93AEE4B0E0EEE4F0E08081877F98
:104230008C93AEE4B0E0EEE4F0E080818F7E8C936E
:104240000E94A31DAFE4B0E0EFE4F0E080818F7B3B
:104250008C93AFE4B0E0EFE4F0E0808180688C9371
:10426000CF91DF910895DF93CF93CDB7DEB784E48C
:1042700064E041E00E94A607AFE4B0E0EFE4F0E0C4
:10428000808181608C93AFE4B0E0EFE4F0E0808166
:104290008D7F8C93AEE4B0E0EEE4F0E08081877F28
:1042A0008C93AEE4B0E0EEE4F0E080818F7E8C93FE
:1042B0000E94A31DAFE4B0E0EFE4F0E080818F7EC8
:1042C0008C93AFE4B0E0EFE4F0E0808180628C9307
:1042D000CF91DF910895DF93CF9300D0CDB7DEB7B4
:1042E0009A83898384E465E041E00E94A607AFE4F5
:1042F000B0E0EFE4F0E0808181608C93AFE4B0E067
:10430000EFE4F0E0808182608C93AEE4B0E0EEE414
:10431000F0E08081877F8C93AEE4B0E0EEE4F0E0E3
:10432000808180618C93EAE4F0E089819A819183B5
:1043300080830E94A31DAFE4B0E0EFE4F0E0808151
:104340008F7B8C93AFE4B0E0EFE4F0E08081806895
:104350008C930F900F90CF91DF910895DF93CF93BF
:1043600000D0CDB7DEB79A83898384E465E041E06D
:104370000E94A607AFE4B0E0EFE4F0E08081816046
:104380008C93AFE4B0E0EFE4F0E0808182608C9346
:10439000AEE4B0E0EEE4F0E08081877F8C93AEE4A1
:1043A000B0E0EEE4F0E0808180618C93E8E4F0E03E
:1043B00089819A81918380830E94A31DAFE4B0E03C
:1043C000EFE4F0E080818F7E8C93AFE4B0E0EFE427
:1043D000F0E0808180628C930F900F90CF91DF91FD
:1043E0000895DF93CF93CDB7DEB7A2E4B0E0E2E467
:1043F000F0E08081877F8C93CF91DF910895DF93E8
:10440000CF93CDB7DEB70E94F121A5E4B0E0E5E49B
:10441000F0E0808181608C93A5E4B0E0E5E4F0E019
:10442000808182608C93A5E4B0E0E5E4F0E08081D7
:1044300084608C93CF91DF910895DF93CF93CDB7B4
:10444000DEB7A5E4B0E0E5E4F0E080818E7F8C93F8
:10445000A5E4B0E0E5E4F0E080818D7F8C93A5E4F5
:10446000B0E0E5E4F0E080818B7F8C93CF91DF9129
:104470000895DF93CF93CDB7DEB70E94FF21CF9190
:10448000DF910895DF93CF93CDB7DEB7A5E4B0E019
:10449000E5E4F0E080818F7B8C93A5E4B0E0E5E477
:1044A000F0E08081877F8C930E949E0FA9E5B0E0A9
:1044B000E9E5F0E0808180648C930E943922CF91FD
:1044C000DF910895DF93CF930F92CDB7DEB7898345
:1044D000A5E4B0E0E5E4F0E080818F7B8C93A5E477
:1044E000B0E0E5E4F0E0808188608C93E3E4F0E004
:1044F000898180830E949E0FA9E5B0E0E9E5F0E0A4
:10450000808180688C930E9439220F90CF91DF9137
:104510000895DF93CF930F92CDB7DEB7898384E4FC
:1045200067E041E00E94A607A5E4B0E0E5E4F0E022
:1045300080818F7B8C93A5E4B0E0E5E4F0E080819E
:1045400088608C93E3E4F0E0898180830E94FF21FE
:10455000A5E4B0E0E5E4F0E0808180618C93A5E41F
:10456000B0E0E5E4F0E080818F7D8C930F90CF91F7
:10457000DF910895DF93CF930F92CDB7DEB7898394
:1045800084E467E041E00E94A607A5E4B0E0E5E42A
:10459000F0E0808180648C93A5E4B0E0E5E4F0E095
:1045A000808188608C93E3E4F0E0898180830E94BD
:1045B000FF21A5E4B0E0E5E4F0E080818F7E8C93FC
:1045C000A5E4B0E0E5E4F0E0808180628C930F9098
:1045D000CF91DF910895DF93CF930F92CDB7DEB7E0
:1045E00089838981882F90E0AA2797FDA095BA2F0B
:1045F000BC01CD010E945504DC01CB01BC01CD0101
:1046000023E333E343E250E40E941F02DC01CB01C9
:10461000BC01CD010E944900DC01CB010E94BA22FD
:104620000F90CF91DF910895DF93CF930F92CDB785
:10463000DEB7898382E463E041E00E94A607A5E437
:10464000B0E0E5E4F0E0808180648C93A5E4B0E024
:10465000E5E4F0E08081877F8C93E3E4F0E08981FA
:1046600080830E94FF21A5E4B0E0E5E4F0E08081D2
:104670008F7E8C93A5E4B0E0E5E4F0E08081806279
:104680008C930F90CF91DF910895DF93CF93CDB7A7
:10469000DEB7E4E4F0E01082CF91DF910895DF937C
:1046A000CF9300D000D000D0CDB7DEB76B837C8332
:1046B0008D839E8384E460E040E00E94A60784E44A
:1046C00061E041E00E94A6070E94BB248B819C818F
:1046D000AD81BE81880F991FAA1FBB1F880F991F2C
:1046E000AA1FBB1F880F991FAA1FBB1F880F991FE6
:1046F000AA1FBB1F9C01AD0180E092E1AAE7B0E0D8
:10470000BC01CD010E94732CDA01C90101979A8383
:104710008983E0E4F0E08981882F90E0892F990F68
:10472000990B8083E9E2F0E089818083AAE2B0E01E
:10473000EAE2F0E0808180618C93AAE2B0E0EAE2F4
:10474000F0E0808188608C93E0E4F0E086E880838C
:1047500026960FB6F894DEBF0FBECDBFCF91DF9186
:104760000895DF93CF930F92CDB7DEB78983EBE245
:10477000F0E08081882F90E0807290709595879509
:104780009595879595958795959587959595879511
:10479000009769F3ECE2F0E0898180830F90CF917C
:1047A000DF910895DF93CF93CDB7DEB760970FB653
:1047B000F894DEBF0FBECDBF988B8F877CC0EF858E
:1047C000F88980810E94B1238F8598890196988B02
:1047D0008F8780E090E0A8ECB2E48B879C87AD8760
:1047E000BE876B857C858D859E8520E030E04AEF15
:1047F00054E40E941F02DC01CB018F839887A987B4
:10480000BA876F81788589859A8520E030E040E815
:104810005FE30E94250488232CF481E090E09E83CE
:104820008D833FC06F81788589859A8520E03FEF31
:104830004FE757E40E94C50318164CF56B857C853D
:104840008D859E8520E030E040E251E40E941F0209
:10485000DC01CB01BC01CD010E944900DC01CB0190
:104860009E838D830FC088EC90E09C838B838B812B
:104870009C810197F1F79C838B838D819E810197A9
:104880009E838D838D819E81009769F714C06F810F
:10489000788589859A850E944900DC01CB019E8339
:1048A0008D838D819E819A83898389819A810197E5
:1048B000F1F79A838983EF85F8898081882309F04D
:1048C0007ECF60960FB6F894DEBF0FBECDBFCF91FE
:1048D000DF910895DF93CF93CDB7DEB7EBE2F0E041
:1048E0008081881F8827881F882F90E0907000970C
:1048F000A9F3ECE2F0E08081CF91DF910895DF939E
:10490000CF93CDB7DEB7EBE2F0E08081882F90E067
:1049100088709070959587959595879595958795CD
:10492000CF91DF910895DF93CF93CDB7DEB7EBE260
:10493000F0E08081882F90E0847090709595879545
:1049400095958795CF91DF910895DF93CF93CDB75C
:10495000DEB7EBE2F0E08081882F90E0807190700C
:10496000959587959595879595958795959587952F
:10497000CF91DF910895DF93CF93CDB7DEB7ABE250
:10498000B0E0EBE2F0E080818D7F8C93CF91DF91FE
:104990000895DF93CF93CDB7DEB7ABE2B0E0EBE2A3
:1049A000F0E0808182608C93CF91DF910895DF9356
:1049B000CF93CDB7DEB7AAE2B0E0EAE2F0E08081C3
:1049C00080688C93CF91DF910895DF93CF93CDB71B
:1049D000DEB7AAE2B0E0EAE2F0E080818F778C9364
:1049E000CF91DF910895DF93CF9300D0CDB7DEB79D
:1049F00089836A8389816A8141E00E94A6070F90BA
:104A00000F90CF91DF910895DF93CF93CDB7DEB7AD
:104A10006A970FB6F894DEBF0FBECDBF898F6A8F3D
:104A2000898D6A8D41E00E94DA0880E090E0A8E478
:104A3000B2E48D8B9E8BAF8BB88F6D897E898F8909
:104A4000988D2BEA3AEA4AE250E40E941F02DC0108
:104A5000CB01898B9A8BAB8BBC8B69897A898B89CB
:104A60009C8920E030E040E85FE30E942504882331
:104A70001CF481E0888B91C069897A898B899C8933
:104A800020E030E04FE753E40E94C50318160CF015
:104A90007BC06D897E898F89988D20E030E04AE760
:104AA00054E40E941903DC01CB018C879D87AE87FB
:104AB000BF876C857D858E859F8520E030E04AEF3D
:104AC00054E40E941F02DC01CB0188879987AA87E2
:104AD000BB87688579858A859B8520E030E040E842
:104AE0005FE30E94250488232CF481E090E09F83FB
:104AF0008E833FC0688579858A859B8520E03FEF5E
:104B00004FE757E40E94C50318164CF56C857D8568
:104B10008E859F8520E030E040E251E40E941F0234
:104B2000DC01CB01BC01CD010E944900DC01CB01BD
:104B30009F838E830FC088EC90E09D838C838C8153
:104B40009D810197F1F79D838C838E819F810197D1
:104B50009F838E838E819F81009769F724C068852B
:104B600079858A859B850E944900DC01CB019F8362
:104B70008E838E819F819B838A838A819B8101970B
:104B8000F1F79B838A830FC069897A898B899C8915
:104B90000E944900DC01CB01888B88898983898147
:104BA0008A95F1F78983898D6A8D40E00E94DA0841
:104BB0006A960FB6F894DEBF0FBECDBFCF91DF91DE
:104BC0000895DF93CF93CDB7DEB728970FB6F8944B
:104BD000DEBF0FBECDBF8F8368870E94F0200E948A
:104BE000001E0E94CA208F8168850E9404250E94B1
:104BF000A7200E94D8208823E1F3E6E4F0E080813A
:104C000091819C838B830E94CA200E94B5200E94C0
:104C1000D8208823E1F3E6E4F0E0808191819A8353
:104C200089830E94CA200E94BF1D0E94F020298112
:104C30003A818B819C81A901481B590BCA019E8333
:104C40008D838D819E81CC01A0E0B0E0BC01CD01BF
:104C50000E940705DC01CB01BC01CD012BEB38EB39
:104C60004DE050E40E941F02DC01CB01BC01CD01EC
:104C70000E944900DC01CB0128960FB6F894DEBFF4
:104C80000FBECDBFCF91DF910895DF93CF93CDB706
:104C9000DEB70E945A260E94AB2A0E9462290E9417
:104CA00088290E9488260E947C2A0E94D42A0E9479
:104CB0007127F3CFDF93CF93CDB7DEB70E949E0F5E
:104CC00060E875E280E090E00E944F230E944E165B
:104CD0000E94231484E465E00E94F32481E461E0EF
:104CE0000E94491880E50E94EB2283E462E00E9462
:104CF000F61783E463E00E94F61781E460E00E9407
:104D0000750781E460E00E949607CF91DF910895D6
:104D1000DF93CF9300D0CDB7DEB70E946A24809393
:104D2000E5018091E501282F30E03A8329838981CC
:104D30009A818235910509F46EC029813A81233523
:104D400031058CF589819A818734910509F4A3C0D6
:104D500029813A81283431059CF489819A818234F1
:104D6000910509F453C029813A812634310509F4AB
:104D700048C089819A818134910509F47DC0ACC015
:104D800029813A812D34310509F468C089819A81DD
:104D90008E34910509F469C029813A812C3431059A
:104DA00009F43EC099C089819A818C36910509F435
:104DB0004BC029813A812D3631059CF489819A8135
:104DC0008435910509F45FC029813A812435310584
:104DD0000CF43FC089819A818535910509F457C04B
:104DE0007BC029813A8122373105F9F089819A8186
:104DF0008837910521F129813A812F363105D1F08B
:104E00006BC081E461E00E946F1866C081E461E0DC
:104E10000E94B51861C081E461E00E94FB185CC08B
:104E200081E461E00E94411957C081E461E00E9481
:104E3000CD1952C081E461E00E94131A4DC081E493
:104E400061E00E94591A48C081E461E00E9487191C
:104E500043C081E461E00E949F1A3EC08AE58093CE
:104E6000D3018AE50E94EB2237C082E38093D3010D
:104E700082E30E94EB2230C086E48093D30186E473
:104E80000E94EB2229C081E08093D40125C081E0FB
:104E90008093D60121C00E946A248093E6010E947B
:104EA0006A248093DD018091E601882F90E09C01C7
:104EB000220F331FC901880F991F880F991F820F76
:104EC000931F982F8091DD01890F80518093D3012A
:104ED0008091D3010E94EB220F900F90CF91DF9130
:104EE0000895DF93CF93CDB7DEB7AA970FB6F894A6
:104EF000DEBF0FBECDBF8091D401882309F4D4C199
:104F00000E94031280E690E00E9432168EE10E9419
:104F1000EB22CAC184E465E00E94E1259093EA0196
:104F20008093E9018091E9019091EA01883291052D
:104F300028F081E461E00E946F188AC181E461E099
:104F40000E94FB1880E090E0AAE7B3E48FA398A743
:104F5000A9A7BAA76FA178A589A59AA520E030E0F6
:104F60004AEF54E40E941F02DC01CB018BA39CA3F7
:104F7000ADA3BEA36BA17CA18DA19EA120E030E0DA
:104F800040E85FE30E94250488232CF481E090E050
:104F90009AA389A33FC06BA17CA18DA19EA120E013
:104FA0003FEF4FE757E40E94C50318164CF56FA179
:104FB00078A589A59AA520E030E040E251E40E945E
:104FC0001F02DC01CB01BC01CD010E944900DC01C4
:104FD000CB019AA389A30FC088EC90E098A38F8F90
:104FE0008F8D98A10197F1F798A38F8F89A19AA12E
:104FF00001979AA389A389A19AA1009769F714C080
:105000006BA17CA18DA19EA10E944900DC01CB0176
:105010009AA389A389A19AA19E8F8D8F8D8D9E8D34
:105020000197F1F79E8F8D8F84E465E00E94E12562
:105030009093DF018093DE018091DE019091DF018A
:105040008832910528F081E461E00E946F1800C168
:1050500081E461E00E94FB1880E090E0AAEFB3E4F5
:10506000898F9A8FAB8FBC8F698D7A8D8B8D9C8D3C
:1050700020E030E04AEF54E40E941F02DC01CB0143
:105080008D8B9E8BAF8BB88F6D897E898F89988D24
:1050900020E030E040E85FE30E94250488232CF400
:1050A00081E090E09C8B8B8B3FC06D897E898F89DE
:1050B000988D20E03FEF4FE757E40E94C503181694
:1050C0004CF5698D7A8D8B8D9C8D20E030E040E22F
:1050D00051E40E941F02DC01CB01BC01CD010E9402
:1050E0004900DC01CB019C8B8B8B0FC088EC90E0DE
:1050F0009A8B898B89899A890197F1F79A8B898B89
:105100008B899C8901979C8B8B8B8B899C890097C1
:1051100069F714C06D897E898F89988D0E94490036
:10512000DC01CB019C8B8B8B8B899C89988B8F8727
:105130008F8598890197F1F7988B8F8784E465E0D4
:105140000E94E1259093E8018093E7018091E701B7
:105150009091E8018832910528F081E461E00E9495
:105160006F1876C081E461E00E94591A80E090E0F7
:10517000A6E1B3E48B879C87AD87BE876B857C8572
:105180008D859E8520E030E04AEF54E40E941F02A6
:10519000DC01CB018F839887A987BA876F817885D7
:1051A00089859A8520E030E040E85FE30E9425048D
:1051B00088232CF481E090E09E838D833FC06F8133
:1051C000788589859A8520E03FEF4FE757E40E9474
:1051D000C50318164CF56B857C858D859E8520E072
:1051E00030E040E251E40E941F02DC01CB01BC012F
:1051F000CD010E944900DC01CB019E838D830FC04D
:1052000088EC90E09C838B838B819C810197F1F7E4
:105210009C838B838D819E8101979E838D838D815D
:105220009E81009769F714C06F81788589859A857A
:105230000E944900DC01CB019E838D838D819E817C
:105240009A83898389819A810197F1F79A83898367
:10525000EBE2F0E08081881F8827881F882F90E08C
:1052600090708130910501F5ECE2F0E080818437A7
:10527000D9F41092D40181E461E00E949F1A0E9447
:10528000031281E061E00E94E31581E790E00E9453
:10529000321682E061E00E94E3158EE790E00E9402
:1052A000321686E40E94EB228091D401882309F013
:1052B00031CEAA960FB6F894DEBF0FBECDBFCF9108
:1052C000DF910895DF93CF93CDB7DEB781E06DE036
:1052D0000E94E3158091D3019AE0692F0E94532C1C
:1052E0009AE0692F0E94532C892F805D0E94161628
:1052F0008091D3019AE0692F0E94532C892F805D01
:105300000E94161680E20E941616CF91DF91089532
:10531000DF93CF93CDB7DEB782E06EE00E94E31556
:105320008091E9019091EA0124E630E0B9010E9400
:105330005F2CCB012AE030E0B9010E945F2C805D38
:105340000E9416168091E9019091EA012AE030E06E
:10535000B9010E945F2CCB012AE030E0B9010E9424
:105360005F2C805D0E9416168091E9019091EA0100
:105370002AE030E0B9010E945F2C805D0E94161681
:1053800080E20E941616CF91DF910895DF93CF93AC
:10539000CDB7DEB760970FB6F894DEBF0FBECDBFB6
:1053A0008091D501282F30E0388B2F878F85988901
:1053B000009731F02F8538892130310591F093C065
:1053C00081E061E00E94E3158CE890E00E943216D3
:1053D00083E462E00E94071883E463E00E941818E7
:1053E00082C081E061E00E94E3158BE990E00E94B9
:1053F000321683E463E00E94071883E462E00E94AF
:10540000181880E090E0AAE7B4E48B879C87AD870A
:10541000BE876B857C858D859E8520E030E04AEFD8
:1054200054E40E941F02DC01CB018F839887A98777
:10543000BA876F81788589859A8520E030E040E8D9
:105440005FE30E94250488232CF481E090E09E8392
:105450008D833FC06F81788589859A8520E03FEFF5
:105460004FE757E40E94C50318164CF56B857C8501
:105470008D859E8520E030E040E251E40E941F02CD
:10548000DC01CB01BC01CD010E944900DC01CB0154
:105490009E838D830FC088EC90E09C838B838B81EF
:1054A0009C810197F1F79C838B838D819E8101976D
:1054B0009E838D838D819E81009769F714C06F81D3
:1054C000788589859A850E944900DC01CB019E83FD
:1054D0008D838D819E819A83898389819A810197A9
:1054E000F1F79A83898360960FB6F894DEBF0FBEFA
:1054F000CDBFCF91DF910895DF93CF93CDB7DEB7C6
:1055000084E465E00E94E1259093EA018093E9013B
:105510008091E9019091EA018932910588F48091A6
:10552000E501863469F481E461E00E949F1A83E416
:1055300062E00E94071883E463E00E94181808C024
:1055400083E462E00E94181883E463E00E94071875
:10555000CF91DF910895DF93CF93CDB7DEB70DC024
:1055600081E460E00E948607882F90E0009719F49C
:1055700081E08093D5010E94C6298091D5018823BE
:1055800079F381E061E00E94E31581E790E00E94F9
:10559000321682E061E00E94E3158EE790E00E94FF
:1055A0003216CF91DF910895DF93CF93CDB7DEB759
:1055B0006C970FB6F894DEBF0FBECDBF8091D601B9
:1055C000882309F462C10E9403128BEA90E00E94D2
:1055D000321682E061E00E94E3158BEB90E00E94BE
:1055E000321680E090E0AAE7B4E4898F9A8FAB8FFF
:1055F000BC8F698D7A8D8B8D9C8D20E030E04AEFD9
:1056000054E40E941F02DC01CB018D8B9E8BAF8B7B
:10561000B88F6D897E898F89988D20E030E040E8D1
:105620005FE30E94250488232CF481E090E09C8BAA
:105630008B8B3FC06D897E898F89988D20E03FEFED
:105640004FE757E40E94C50318164CF5698D7A8D13
:105650008B8D9C8D20E030E040E251E40E941F02DF
:10566000DC01CB01BC01CD010E944900DC01CB0172
:105670009C8B8B8B0FC088EC90E09A8B898B8989EF
:105680009A890197F1F79A8B898B8B899C8901976D
:105690009C8B8B8B8B899C89009769F714C06D89D3
:1056A0007E898F89988D0E944900DC01CB019C8BFB
:1056B0008B8B8B899C89988B8F878F859889019795
:1056C000F1F7988B8F878EE10E943F1DDEC084E446
:1056D00065E00E94E125CC01A0E0B0E08093E1010B
:1056E0009093E201A093E301B093E40181E461E0CF
:1056F0000E946F188091E1019091E201A091E30175
:10570000B091E4018F359105A105B10520F08AE53E
:105710000E94EB221CC08091E1019091E201A091D6
:10572000E301B091E40180319105A105B10528F4B0
:1057300081E461E00E949F1A0AC08091E10190918A
:10574000E201A091E301B091E4010E94EB2280E02C
:1057500090E0A8ECB1E48B879C87AD87BE876B8512
:105760007C858D859E8520E030E04AEF54E40E94E0
:105770001F02DC01CB018F839887A987BA876F81CD
:10578000788589859A8520E030E040E85FE30E94D3
:10579000250488232CF481E090E09E838D833FC014
:1057A0006F81788589859A8520E03FEF4FE757E440
:1057B0000E94C50318164CF56B857C858D859E85EA
:1057C00020E030E040E251E40E941F02DC01CB0106
:1057D000BC01CD010E944900DC01CB019E838D8379
:1057E0000FC088EC90E09C838B838B819C81019718
:1057F000F1F79C838B838D819E8101979E838D839E
:105800008D819E81009769F714C06F8178858985A5
:105810009A850E944900DC01CB019E838D838D8196
:105820009E819A83898389819A810197F1F79A836E
:105830008983EBE2F0E08081881F8827881F882F0A
:1058400090E090708130910501F5ECE2F0E080810C
:105850008537D9F41092D60181E461E00E949F1A45
:105860000E94031281E061E00E94E31581E790E06D
:105870000E94321682E061E00E94E3158EE790E01C
:105880000E94321686E40E94EB228091D601882382
:1058900009F01DCF6C960FB6F894DEBF0FBECDBFDA
:1058A000CF91DF910895991B79E004C0991F961755
:1058B00008F0961B881F7A95C9F780950895AA1B52
:1058C000BB1B51E107C0AA1FBB1FA617B70710F0EB
:1058D000A61BB70B881F991F5A95A9F7809590951D
:1058E000BC01CD010895A1E21A2EAA1BBB1BFD012C
:1058F0000DC0AA1FBB1FEE1FFF1FA217B307E407AF
:10590000F50720F0A21BB30BE40BF50B661F771F06
:10591000881F991F1A9469F76095709580959095E6
:105920009B01AC01BD01CF0108952F923F924F9290
:105930005F926F927F928F929F92AF92BF92CF921F
:10594000DF92EF92FF920F931F93CF93DF93CDB728
:10595000DEB7CA1BDB0B0FB6F894DEBF0FBECDBFA0
:1059600009942A88398848885F846E847D848C8471
:105970009B84AA84B984C884DF80EE80FD800C817A
:105980001B81AA81B981CE0FD11D0FB6F894DEBF5D
:105990000FBECDBFED010895FB019F01E894423099
:1059A000C4F04532B4F44A3029F497FB1EF49095C4
:1059B00081959F4F642F77270E945F2C805D8A33EB
:1059C0000CF0895D8193CB010097A1F716F45DE29D
:1059D00051931082C9010C94ED2CDC01FC01672F5E
:1059E00071917723E1F7329704C07C916D937083B6
:0E59F0006291AE17BF07C8F30895F894FFCF79
:1059FE00204175746F6D61746963204D6F6465200D
:105A0E0000436172205370656564203A200046722F
:105A1E006F6E742044697374203A2000456E676976
:105A2E006E65204F6E20486F6C6400537461727403
:105A3E00696E6720456E67696E650020436F6E74F0
:105A4E00726F6C205370656564200020427920557A
:105A5E006C747261536F6E69632000000000000069
:105A6E000000000001020203030303040404040403
:105A7E0004040405050505050505050505050505CB
:105A8E0005050506060606060606060606060606AB
:105A9E000606060606060606060606060606060698
:105AAE00060606070707070707070707070707077B
:105ABE000707070707070707070707070707070768
:105ACE000707070707070707070707070707070758
